{
  "contractName": "Election",
  "abi": [
    {
      "inputs": [],
      "stateMutability": "nonpayable",
      "type": "constructor"
    },
    {
      "inputs": [
        {
          "internalType": "uint256",
          "name": "",
          "type": "uint256"
        }
      ],
      "name": "candidates",
      "outputs": [
        {
          "internalType": "uint256",
          "name": "id",
          "type": "uint256"
        },
        {
          "internalType": "string",
          "name": "name",
          "type": "string"
        },
        {
          "internalType": "uint256",
          "name": "voteCount",
          "type": "uint256"
        }
      ],
      "stateMutability": "view",
      "type": "function"
    },
    {
      "inputs": [],
      "name": "candidatesCount",
      "outputs": [
        {
          "internalType": "uint256",
          "name": "",
          "type": "uint256"
        }
      ],
      "stateMutability": "view",
      "type": "function"
    },
    {
      "inputs": [
        {
          "internalType": "address",
          "name": "",
          "type": "address"
        }
      ],
      "name": "voters",
      "outputs": [
        {
          "internalType": "bool",
          "name": "voted",
          "type": "bool"
        },
        {
          "internalType": "uint256",
          "name": "vote",
          "type": "uint256"
        },
        {
          "internalType": "bool",
          "name": "registered",
          "type": "bool"
        }
      ],
      "stateMutability": "view",
      "type": "function"
    },
    {
      "inputs": [
        {
          "internalType": "address",
          "name": "voter",
          "type": "address"
        }
      ],
      "name": "registerVoter",
      "outputs": [],
      "stateMutability": "nonpayable",
      "type": "function"
    },
    {
      "inputs": [
        {
          "internalType": "uint256",
          "name": "_candidateId",
          "type": "uint256"
        }
      ],
      "name": "vote",
      "outputs": [],
      "stateMutability": "nonpayable",
      "type": "function"
    },
    {
      "inputs": [
        {
          "internalType": "uint256",
          "name": "_candidateId",
          "type": "uint256"
        }
      ],
      "name": "getVoteCount",
      "outputs": [
        {
          "internalType": "uint256",
          "name": "",
          "type": "uint256"
        }
      ],
      "stateMutability": "view",
      "type": "function"
    }
  ],
  "bytecode": "0x60806040523480156200001157600080fd5b50620000586040518060400160405280600b81526020017f43616e6469646174652031000000000000000000000000000000000000000000815250620000a460201b60201c565b6200009e6040518060400160405280600b81526020017f43616e6469646174652032000000000000000000000000000000000000000000815250620000a460201b60201c565b620002c6565b60026000815480929190620000b9906200021a565b9190505550604051806060016040528060025481526020018281526020016000815250600160006002548152602001908152602001600020600082015181600001556020820151816001019080519060200190620001199291906200012a565b506040820151816002015590505050565b8280546200013890620001e4565b90600052602060002090601f0160209004810192826200015c5760008555620001a8565b82601f106200017757805160ff1916838001178555620001a8565b82800160010185558215620001a8579182015b82811115620001a75782518255916020019190600101906200018a565b5b509050620001b79190620001bb565b5090565b5b80821115620001d6576000816000905550600101620001bc565b5090565b6000819050919050565b60006002820490506001821680620001fd57607f821691505b6020821081141562000214576200021362000297565b5b50919050565b60006200022782620001da565b91507fffffffffffffffffffffffffffffffffffffffffffffffffffffffffffffffff8214156200025d576200025c62000268565b5b600182019050919050565b7f4e487b7100000000000000000000000000000000000000000000000000000000600052601160045260246000fd5b7f4e487b7100000000000000000000000000000000000000000000000000000000600052602260045260246000fd5b610a5e80620002d66000396000f3fe608060405234801561001057600080fd5b50600436106100625760003560e01c80630121b93f146100675780632d35a8a2146100835780633477ee2e146100a157806338db6dd3146100d3578063a3ec138d146100ef578063b2c2f2e814610121575b600080fd5b610081600480360381019061007c91906105e9565b610151565b005b61008b61038e565b6040516100989190610820565b60405180910390f35b6100bb60048036038101906100b691906105e9565b610394565b6040516100ca9392919061083b565b60405180910390f35b6100ed60048036038101906100e891906105c0565b610446565b005b610109600480360381019061010491906105c0565b610532565b60405161011893929190610769565b60405180910390f35b61013b600480360381019061013691906105e9565b610576565b6040516101489190610820565b60405180910390f35b6000803373ffffffffffffffffffffffffffffffffffffffff1673ffffffffffffffffffffffffffffffffffffffff16815260200190815260200160002060020160009054906101000a900460ff166101df576040517f08c379a00000000000000000000000000000000000000000000000000000000081526004016101d6906107a0565b60405180910390fd5b6000803373ffffffffffffffffffffffffffffffffffffffff1673ffffffffffffffffffffffffffffffffffffffff16815260200190815260200160002060000160009054906101000a900460ff161561026e576040517f08c379a0000000000000000000000000000000000000000000000000000000008152600401610265906107c0565b60405180910390fd5b60008111801561028057506002548111155b6102bf576040517f08c379a00000000000000000000000000000000000000000000000000000000081526004016102b690610800565b60405180910390fd5b60016000803373ffffffffffffffffffffffffffffffffffffffff1673ffffffffffffffffffffffffffffffffffffffff16815260200190815260200160002060000160006101000a81548160ff021916908315150217905550806000803373ffffffffffffffffffffffffffffffffffffffff1673ffffffffffffffffffffffffffffffffffffffff1681526020019081526020016000206001018190555060016000828152602001908152602001600020600201600081548092919061038690610942565b919050555050565b60025481565b60016020528060005260406000206000915090508060000154908060010180546103bd90610910565b80601f01602080910402602001604051908101604052809291908181526020018280546103e990610910565b80156104365780601f1061040b57610100808354040283529160200191610436565b820191906000526020600020905b81548152906001019060200180831161041957829003601f168201915b5050505050908060020154905083565b6000808273ffffffffffffffffffffffffffffffffffffffff1673ffffffffffffffffffffffffffffffffffffffff16815260200190815260200160002060020160009054906101000a900460ff16156104d5576040517f08c379a00000000000000000000000000000000000000000000000000000000081526004016104cc906107e0565b60405180910390fd5b60016000808373ffffffffffffffffffffffffffffffffffffffff1673ffffffffffffffffffffffffffffffffffffffff16815260200190815260200160002060020160006101000a81548160ff02191690831515021790555050565b60006020528060005260406000206000915090508060000160009054906101000a900460ff16908060010154908060020160009054906101000a900460ff16905083565b600060016000838152602001908152602001600020600201549050919050565b6000813590506105a5816109fa565b92915050565b6000813590506105ba81610a11565b92915050565b6000602082840312156105d257600080fd5b60006105e084828501610596565b91505092915050565b6000602082840312156105fb57600080fd5b6000610609848285016105ab565b91505092915050565b61061b816108a7565b82525050565b600061062c82610879565b6106368185610884565b93506106468185602086016108dd565b61064f816109e9565b840191505092915050565b6000610667601883610884565b91507f566f746572206973206e6f7420726567697374657265642e00000000000000006000830152602082019050919050565b60006106a7601883610884565b91507f566f7465722068617320616c726561647920766f7465642e00000000000000006000830152602082019050919050565b60006106e7601c83610884565b91507f566f74657220697320616c726561647920726567697374657265642e000000006000830152602082019050919050565b6000610727601283610884565b91507f496e76616c69642063616e6469646174652e00000000000000000000000000006000830152602082019050919050565b610763816108d3565b82525050565b600060608201905061077e6000830186610612565b61078b602083018561075a565b6107986040830184610612565b949350505050565b600060208201905081810360008301526107b98161065a565b9050919050565b600060208201905081810360008301526107d98161069a565b9050919050565b600060208201905081810360008301526107f9816106da565b9050919050565b600060208201905081810360008301526108198161071a565b9050919050565b6000602082019050610835600083018461075a565b92915050565b6000606082019050610850600083018661075a565b81810360208301526108628185610621565b9050610871604083018461075a565b949350505050565b600081519050919050565b600082825260208201905092915050565b60006108a0826108b3565b9050919050565b60008115159050919050565b600073ffffffffffffffffffffffffffffffffffffffff82169050919050565b6000819050919050565b60005b838110156108fb5780820151818401526020810190506108e0565b8381111561090a576000848401525b50505050565b6000600282049050600182168061092857607f821691505b6020821081141561093c5761093b6109ba565b5b50919050565b600061094d826108d3565b91507fffffffffffffffffffffffffffffffffffffffffffffffffffffffffffffffff8214156109805761097f61098b565b5b600182019050919050565b7f4e487b7100000000000000000000000000000000000000000000000000000000600052601160045260246000fd5b7f4e487b7100000000000000000000000000000000000000000000000000000000600052602260045260246000fd5b6000601f19601f8301169050919050565b610a0381610895565b8114610a0e57600080fd5b50565b610a1a816108d3565b8114610a2557600080fd5b5056fea2646970667358221220cb8d364d49d4bf519b10a5e01b9495dae7e2bf75a33213326598b56aca7982dc64736f6c63430008000033",
  "immutableReferences": {},
  "source": "// SPDX-License-Identifier: MIT\r\npragma solidity ^0.8.0;\r\n\r\ncontract Election {\r\n    // Structure to define a candidate\r\n    struct Candidate {\r\n        uint id;\r\n        string name;\r\n        uint voteCount;\r\n    }\r\n\r\n    // Structure to define a voter\r\n    struct Voter {\r\n        bool voted;\r\n        uint vote;\r\n        bool registered;\r\n    }\r\n\r\n    // Mapping to store voters\r\n    mapping(address => Voter) public voters;\r\n\r\n    // Mapping to store candidates\r\n    mapping(uint => Candidate) public candidates;\r\n\r\n    // Count of registered candidates\r\n    uint public candidatesCount;\r\n\r\n    // Constructor to add candidates at contract deployment\r\n    constructor() {\r\n        addCandidate(\"Candidate 1\");\r\n        addCandidate(\"Candidate 2\");\r\n    }\r\n\r\n    // Function to add a candidate\r\n    function addCandidate(string memory _name) private {\r\n        candidatesCount++;\r\n        candidates[candidatesCount] = Candidate(candidatesCount, _name, 0);\r\n    }\r\n\r\n    // Function to register a voter\r\n    function registerVoter(address voter) public {\r\n        require(!voters[voter].registered, \"Voter is already registered.\");\r\n        voters[voter].registered = true;\r\n    }\r\n\r\n    // Function to vote\r\n    function vote(uint _candidateId) public {\r\n        require(voters[msg.sender].registered, \"Voter is not registered.\");\r\n        require(!voters[msg.sender].voted, \"Voter has already voted.\");\r\n        require(_candidateId > 0 && _candidateId <= candidatesCount, \"Invalid candidate.\");\r\n\r\n        voters[msg.sender].voted = true;\r\n        voters[msg.sender].vote = _candidateId;\r\n\r\n        candidates[_candidateId].voteCount++;\r\n    }\r\n\r\n    // Function to get the vote count of a candidate\r\n    function getVoteCount(uint _candidateId) public view returns (uint) {\r\n        return candidates[_candidateId].voteCount;\r\n    }\r\n}\r\n",
  "sourcePath": "D:\\workshop\\blockchain-init\\VotingSystem\\contracts\\election.sol",
  "compiler": {
    "name": "solc",
    "version": "0.8.0+commit.c7dfd78e.Emscripten.clang"
  },
  "schemaVersion": "3.4.16",
  "updatedAt": "2024-09-29T14:13:22.420Z",
  "devdoc": {
    "kind": "dev",
    "methods": {},
    "version": 1
  },
  "userdoc": {
    "kind": "user",
    "methods": {},
    "version": 1
  }
}